00PROD9999BOVESPA 99992019010420190107                                                                                                                                                                                                                                                                                                                                                      
01BRCEEBACNOR3174CEEB3       COELBA      ON        013JRS CAP PROPRIO20181219000000071010137880000000100000000000            000            000            000000000000000000000400012312019032920182018100SEM TRATAMENTO 000000000000000000N000               000               4000123140001231000000               00000000000000000006098201901070000001I                               
01BRCEEBACNPA6168CEEB5       COELBA      PNA       013JRS CAP PROPRIO20181219000000071010137880000000100000000000            000            000            000000000000000000000400012312019032920182018100SEM TRATAMENTO 000000000000000000N000               000               4000123140001231000000               00000000000000000006098201901070000001I                               
01BRCEEBACNPB4168CEEB6       COELBA      PNB       013JRS CAP PROPRIO20181219000000078111151670000000100000000000            000            000            000000000000000000000400012312019032920182018100SEM TRATAMENTO 000000000000000000N000               000               4000123140001231000000               00000000000000000006098201901070000001I                               
01BRCGASACNOR0147CGAS3       COMGAS      ON        013JRS CAP PROPRIO20181228000000007799572009000000100000000000            000            000            000000000000000000000400012312019011720182018100SEM TRATAMENTO 000000000000000000N000               000               4000123140001231000000               00000000000000000006296201901070000001I                               
01BRCGASACNPA3144CGAS5       COMGAS      PNA       013JRS CAP PROPRIO20181228000000008579529210000000100000000000            000            000            000000000000000000000400012312019011720182018100SEM TRATAMENTO 000000000000000000N000               000               4000123140001231000000               00000000000000000006296201901070000001I                               
01BRCSRNACNOR0167CSRN3       COSERN      ON        013JRS CAP PROPRIO20181219000000015415328900000000100000000000            000            000            000000000000000000000400012312019032920182018100SEM TRATAMENTO 000000000000000000N000               000               4000123140001231000000               00000000000000000006098201901070000001I                               
01BRCSRNACNPA3167CSRN5       COSERN      PNA       013JRS CAP PROPRIO20181219000000016956861790000000100000000000            000            000            000000000000000000000400012312019032920182018100SEM TRATAMENTO 000000000000000000N000               000               4000123140001231000000               00000000000000000006098201901070000001I                               
01BRCSRNACNPB1168CSRN6       COSERN      PNB       013JRS CAP PROPRIO20181219000000016956861790000000100000000000            000            000            000000000000000000000400012312019032920182018100SEM TRATAMENTO 000000000000000000N000               000               4000123140001231000000               00000000000000000006098201901070000001I                               
01BREKTRACNOR0141EKTR3       ELEKTRO     ON        013JRS CAP PROPRIO20181219000000066683960600000000100000000000            000            000            000000000000000000000400012312019043020182018100SEM TRATAMENTO 000000000000000000N000               000               4000123140001231000000               00000000000000000008387201901070000001I                               
01BREKTRACNPR7141EKTR4       ELEKTRO     PN        013JRS CAP PROPRIO20181219000000073352356660000000100000000000            000            000            000000000000000000000400012312019043020182018100SEM TRATAMENTO 000000000000000000N000               000               4000123140001231000000               00000000000000000008387201901070000001I                               
01BRENGIDBS069107ENGI-DEB71  ENERGISA    D71     N2018PREMIO RF      20181226000000607836900000000000100000000000            000            000            000000000000000000000400012312019010720182018100SEM TRATAMENTO 000000000000000000N000               000               4000123140001231000000               00000000000000000007309201901070000001I                               
01BRENGIDBS077107ENGI-DEB72  ENERGISA    D72     N2018PREMIO RF      20181226000000940690800000000000100000000000            000            000            000000000000000000000400012312019010720182018100SEM TRATAMENTO 000000000000000000N000               000               4000123140001231000000               00000000000000000007309201901070000001I                               
01BRENGIDBS085107ENGI-DEB73  ENERGISA    D73     N2018PREMIO RF      20181226000001251577000000000000100000000000            000            000            000000000000000000000400012312019010720182018100SEM TRATAMENTO 000000000000000000N000               000               4000123140001231000000               00000000000000000007309201901070000001I                               
01BRENGIDBS093107ENGI-DEB74  ENERGISA    D74     N2018PREMIO RF      20181226000000604542700000000000100000000000            000            000            000000000000000000000400012312019010720182018100SEM TRATAMENTO 000000000000000000N000               000               4000123140001231000000               00000000000000000007309201901070000001I                               
01BRENGIDBS0A4107ENGI-DEB75  ENERGISA    D75     N2018PREMIO RF      20181226000000931580700000000000100000000000            000            000            000000000000000000000400012312019010720182018100SEM TRATAMENTO 000000000000000000N000               000               4000123140001231000000               00000000000000000007309201901070000001I                               
01BRENGIDBS0B2107ENGI-DEB76  ENERGISA    D76     N2018PREMIO RF      20181226000001235039400000000000100000000000            000            000            000000000000000000000400012312019010720182018100SEM TRATAMENTO 000000000000000000N000               000               4000123140001231000000               00000000000000000007309201901070000001I                               
01BRDMACCTF003104DMAC11      FII MAC     CI        014RENDIMENTO     20190104000000779651670820000000100000000000            000            000            000000000000000000000400012312019011520192019100SEM TRATAMENTO 000000000000000000N000               000               2019010420190104000000               00000000000000000002358201901070000001I                               
01BRDMACCTF003104DMAC11      FII MAC     CI        017AMORTIZACAO RF 20190104000005088211462400000000100000000000            000            000            000000000000000000000400012312019011520192019100SEM TRATAMENTO 000000000000000000N000               000               2019010420190104000000               00000000000000000002358201901070000002I                               
01BRXPINCTF004106XPIN11      FII XP INDL CI  ES    014RENDIMENTO     20190104000000077000000000000000100000000000            000            000            000000000000000000000400012312019011820182018100SEM TRATAMENTO 000000000000000000N000               000               2019010420190104000000               00000000000000000003868201901070000001I                               
01BRXPMLR05M13112XPML12      FII XP MALLSREC       090ATUALIZACAO    20190104000010000000000000000000100000000000BRXPMLCTF000113            000            000000000000000000000400012314000123100000000000SEM TRATAMENTO 000000000000000000N000               000               4000123140001231000000               00000000000000000003573201901070000001I                               
01BRGPSIBDR009110GPSI34      GAP         DRN       010DIVIDENDO      20181115000000060283430900000000100000000000            000            000            000000000000000000000400012312019020520182018100SEM TRATAMENTO 000000000000000000N000               000               4000123140001231000000               00000000000000000002967201901070000001I                               
01BRIDVLACNOR5126IDVL3       INDUSVAL    ON      N2040GRUPAMENTO     20180917000000010000000000000000100000000000BRIDVLACNOR5127            000            000000000000000000000400012314000123100000000012DOAR           000000000000000000N000               000               4000123140001231000000               00000000000000000008387201901070000001I                               
01BRIDVLACNPR2126IDVL4       INDUSVAL    PN      N2040GRUPAMENTO     20180917000000010000000000000000100000000000BRIDVLACNPR2127            000            000000000000000000000400012314000123100000000012DOAR           000000000000000000N000               000               4000123140001231000000               00000000000000000008387201901070000001I                               
01BRLTELACNOR1151LTEL3B      LITEL       ON      MB013JRS CAP PROPRIO20181228000000174431205300000000100000000000            000            000            000000000000000000000400012314000123120182018100SEM TRATAMENTO 000000000000000000N000               000               4000123140001231000000               00000000000000000008387201901070000001I                               
01BRLTELACNPA4149LTEL5B      LITEL       PNA     MB013JRS CAP PROPRIO20181228000000174431205300000000100000000000            000            000            000000000000000000000400012314000123120182018100SEM TRATAMENTO 000000000000000000N000               000               4000123140001231000000               00000000000000000008387201901070000001I                               
01BRLTELARNPB0149LTEL11B     LITEL       PRB     MB013JRS CAP PROPRIO20181228000000174431205300000000100000000000            000            000            000000000000000000000400012314000123120182018100SEM TRATAMENTO 000000000000000000N000               000               4000123140001231000000               00000000000000000008387201901070000001I                               
01BRLAMEACNOR9199LAME3       LOJAS AMERICON      N1013JRS CAP PROPRIO20181224000000007507727200000000100000000000            000            000            000000000000000000000400012312019042220182018100SEM TRATAMENTO 000000000000000000N000               000               4000123140001231000000               00000000000000000006095201901070000001I                               
01BRLAMEACNPR6199LAME4       LOJAS AMERICPN      N1013JRS CAP PROPRIO20181224000000007507727200000000100000000000            000            000            000000000000000000000400012312019042220182018100SEM TRATAMENTO 000000000000000000N000               000               4000123140001231000000               00000000000000000006095201901070000001I                               
01BRNATUACNOR6131NATU3       NATURA      ON      NM013JRS CAP PROPRIO20181228000000025874689859000000100000000000            000            000            000000000000000000000400012312019022620182018100SEM TRATAMENTO 000000000000000000N000               000               4000123140001231000000               00000000000000000008387201901070000001I                               
01BRNEOEACNOR3106NEOE3B      NEOENERGIA  ON      MB013JRS CAP PROPRIO20181219000000029918176250000000100000000000            000            000            000000000000000000000400012312019032920182018100SEM TRATAMENTO 000000000000000000N000               000               4000123140001231000000               00000000000000000006098201901070000001I                               
01BROIBRACNOR1107OIBR3       OI          ON      N1050SUBSCRICAO     20181026000013336300000000000000100000000000BROIBRACNOR1108            000BROIBRD02OR4107000000124000000000201901094000123100000000000SEM TRATAMENTO 000000000000000000N000               000               4000123140001231000000               00000000000000000006098201811210000001A                               
01BROIBRACNPR8106OIBR4       OI          PN      N1050SUBSCRICAO     20181026000013336300000000000000100000000000BROIBRACNOR1108            000BROIBRD02OR4107000000124000000000201901094000123100000000000SEM TRATAMENTO 000000000000000000N000               000               4000123140001231000000               00000000000000000006098201811210000001A                               
01BROIBRD02OR4107OIBR1       OI          DIR ORD N1052EXERCICIO SUBS 20181026000013336300000000000000100000000000BROIBRR02OR4107BROIBRACNOR1107            000000000124000000000201901094000123100000000000SEM TRATAMENTO 000000000000000000N000               000               4000123140001231000000               00000000000000000006098201811210000001A                               
01BRRBRACRI2I2159RBRA-CRI96  RBCAPITALRESC96     MB016JUROS RF       20190104000205778472344000000000100000000000            000            000            000000000000000000000400012312019010720192019100SEM TRATAMENTO 000000000000000000N000               000               4000123140001231000000               00000000000000000007309201901070000001I                               
01BRRBRACRI2I2159RBRA-CRI96  RBCAPITALRESC96     MB017AMORTIZACAO RF 20190104000206872124622000000000100000000000            000            000            000000000000000000000400012312019010720192019100SEM TRATAMENTO 000000000000000000N000               000               4000123140001231000000               00000000000000000007309201901070000002I                               
01BRRBRACRI3V3123RBRA-CRID1  RBCAPITALRESCD1     MB016JUROS RF       20190104000000536999765000000000100000000000            000            000            000000000000000000000400012312019010720192019100SEM TRATAMENTO 000000000000000000N000               000               4000123140001231000000               00000000000000000007309201901070000001I                               
01BRRBRACRI3V3123RBRA-CRID1  RBCAPITALRESCD1     MB017AMORTIZACAO RF 20190104000000732937511000000000100000000000            000            000            000000000000000000000400012312019010720192019100SEM TRATAMENTO 000000000000000000N000               000               4000123140001231000000               00000000000000000007309201901070000002I                               
01BRTRPNACNOR0117TRPN3       TARPON INV  ON      NM010DIVIDENDO      20181228000000115826200000000000100000000000            000            000            000000000000000000000400012312019011520182018100SEM TRATAMENTO 000000000000000000N000               000               4000123140001231000000               00000000000000000008387201901070000001I                               
99PROD9999BOVESPA 999920190104000000040                                                                                                                                                                                                                                                                                                                                                     
